{"abi":[{"type":"constructor","inputs":[{"name":"_trustedForwarder","type":"address","internalType":"address"}],"stateMutability":"nonpayable"},{"type":"function","name":"addAP","inputs":[{"name":"newAP","type":"tuple","internalType":"struct AuthorizationProvider","components":[{"name":"id","type":"uint8","internalType":"uint8"},{"name":"owner","type":"address","internalType":"address"},{"name":"apName","type":"string","internalType":"string"},{"name":"apURI","type":"string","internalType":"string"}]}],"outputs":[],"stateMutability":"nonpayable"},{"type":"function","name":"addRegister","inputs":[{"name":"newRegister","type":"tuple","internalType":"struct Register","components":[{"name":"id","type":"uint8","internalType":"uint8"},{"name":"owner","type":"address","internalType":"address"},{"name":"registerName","type":"string","internalType":"string"},{"name":"registerURI","type":"string","internalType":"string"}]}],"outputs":[],"stateMutability":"nonpayable"},{"type":"function","name":"addSVS","inputs":[{"name":"newSVS","type":"tuple","internalType":"struct SignatureValidationServer","components":[{"name":"id","type":"uint8","internalType":"uint8"},{"name":"owner","type":"address","internalType":"address"},{"name":"svsName","type":"string","internalType":"string"},{"name":"svsURI","type":"string","internalType":"string"}]}],"outputs":[],"stateMutability":"nonpayable"},{"type":"function","name":"aps","inputs":[{"name":"","type":"uint8","internalType":"uint8"}],"outputs":[{"name":"id","type":"uint8","internalType":"uint8"},{"name":"owner","type":"address","internalType":"address"},{"name":"apName","type":"string","internalType":"string"},{"name":"apURI","type":"string","internalType":"string"}],"stateMutability":"view"},{"type":"function","name":"authorizeVoter","inputs":[{"name":"electionID","type":"uint256","internalType":"uint256"},{"name":"voterID","type":"uint256","internalType":"uint256"}],"outputs":[],"stateMutability":"nonpayable"},{"type":"function","name":"authorizeVoters","inputs":[{"name":"electionID","type":"uint256","internalType":"uint256"},{"name":"voterIDs","type":"uint256[]","internalType":"uint256[]"}],"outputs":[],"stateMutability":"nonpayable"},{"type":"function","name":"cancelElection","inputs":[{"name":"electionID","type":"uint256","internalType":"uint256"},{"name":"cancelReasonIPFSCID","type":"string","internalType":"string"}],"outputs":[],"stateMutability":"nonpayable"},{"type":"function","name":"createElection","inputs":[{"name":"startTime","type":"uint256","internalType":"uint256"},{"name":"endTime","type":"uint256","internalType":"uint256"},{"name":"registerID","type":"uint8","internalType":"uint8"},{"name":"authProviderId","type":"uint8","internalType":"uint8"},{"name":"svsId","type":"uint8","internalType":"uint8"},{"name":"descriptionIPFSCID","type":"string","internalType":"string"},{"name":"publicKey","type":"bytes","internalType":"bytes"}],"outputs":[{"name":"createdElectionID","type":"uint256","internalType":"uint256"}],"stateMutability":"nonpayable"},{"type":"function","name":"elections","inputs":[{"name":"","type":"uint256","internalType":"uint256"}],"outputs":[{"name":"electionID","type":"uint256","internalType":"uint256"},{"name":"startTime","type":"uint256","internalType":"uint256"},{"name":"endTime","type":"uint256","internalType":"uint256"},{"name":"totalVotes","type":"uint256","internalType":"uint256"},{"name":"totalAuthorized","type":"uint256","internalType":"uint256"},{"name":"totalRegistered","type":"uint256","internalType":"uint256"},{"name":"registerID","type":"uint8","internalType":"uint8"},{"name":"authProviderId","type":"uint8","internalType":"uint8"},{"name":"svsId","type":"uint8","internalType":"uint8"},{"name":"status","type":"uint8","internalType":"enum ElectionStatus"},{"name":"cancelReasonIPFSCID","type":"string","internalType":"string"},{"name":"descriptionIPFSCID","type":"string","internalType":"string"},{"name":"publicKey","type":"bytes","internalType":"bytes"},{"name":"privateKey","type":"bytes","internalType":"bytes"},{"name":"registerPubKey","type":"tuple","internalType":"struct RSAPublicKeyRaw","components":[{"name":"n","type":"bytes","internalType":"bytes"},{"name":"e","type":"bytes","internalType":"bytes"}]}],"stateMutability":"view"},{"type":"function","name":"endElection","inputs":[{"name":"electionID","type":"uint256","internalType":"uint256"}],"outputs":[],"stateMutability":"nonpayable"},{"type":"function","name":"isTrustedForwarder","inputs":[{"name":"forwarder","type":"address","internalType":"address"}],"outputs":[{"name":"","type":"bool","internalType":"bool"}],"stateMutability":"view"},{"type":"function","name":"owner","inputs":[],"outputs":[{"name":"","type":"address","internalType":"address"}],"stateMutability":"view"},{"type":"function","name":"publishElectionResults","inputs":[{"name":"electionID","type":"uint256","internalType":"uint256"},{"name":"yesVotes","type":"uint256[]","internalType":"uint256[]"},{"name":"noVotes","type":"uint256[]","internalType":"uint256[]"},{"name":"invalidVotes","type":"uint256[]","internalType":"uint256[]"},{"name":"privateKey","type":"bytes","internalType":"bytes"}],"outputs":[],"stateMutability":"nonpayable"},{"type":"function","name":"registerVoter","inputs":[{"name":"electionID","type":"uint256","internalType":"uint256"},{"name":"voterID","type":"uint256","internalType":"uint256"},{"name":"blindedSignature","type":"bytes","internalType":"bytes"},{"name":"blindedElectionToken","type":"bytes","internalType":"bytes"}],"outputs":[],"stateMutability":"nonpayable"},{"type":"function","name":"registerVoters","inputs":[{"name":"electionID","type":"uint256","internalType":"uint256"},{"name":"voterIDs","type":"uint256[]","internalType":"uint256[]"},{"name":"blindedSignature","type":"bytes","internalType":"bytes"},{"name":"blindedElectionToken","type":"bytes","internalType":"bytes"}],"outputs":[],"stateMutability":"nonpayable"},{"type":"function","name":"registers","inputs":[{"name":"","type":"uint8","internalType":"uint8"}],"outputs":[{"name":"id","type":"uint8","internalType":"uint8"},{"name":"owner","type":"address","internalType":"address"},{"name":"registerName","type":"string","internalType":"string"},{"name":"registerURI","type":"string","internalType":"string"}],"stateMutability":"view"},{"type":"function","name":"renounceOwnership","inputs":[],"outputs":[],"stateMutability":"nonpayable"},{"type":"function","name":"setElectionRegisterPublicKey","inputs":[{"name":"electionID","type":"uint256","internalType":"uint256"},{"name":"n","type":"bytes","internalType":"bytes"},{"name":"e","type":"bytes","internalType":"bytes"}],"outputs":[],"stateMutability":"nonpayable"},{"type":"function","name":"startElection","inputs":[{"name":"electionID","type":"uint256","internalType":"uint256"}],"outputs":[],"stateMutability":"nonpayable"},{"type":"function","name":"svss","inputs":[{"name":"","type":"uint8","internalType":"uint8"}],"outputs":[{"name":"id","type":"uint8","internalType":"uint8"},{"name":"owner","type":"address","internalType":"address"},{"name":"svsName","type":"string","internalType":"string"},{"name":"svsURI","type":"string","internalType":"string"}],"stateMutability":"view"},{"type":"function","name":"transferOwnership","inputs":[{"name":"newOwner","type":"address","internalType":"address"}],"outputs":[],"stateMutability":"nonpayable"},{"type":"function","name":"trustedForwarder","inputs":[],"outputs":[{"name":"","type":"address","internalType":"address"}],"stateMutability":"view"},{"type":"function","name":"vote","inputs":[{"name":"electionID","type":"uint256","internalType":"uint256"},{"name":"voter","type":"address","internalType":"address"},{"name":"svsSignature","type":"bytes","internalType":"bytes"},{"name":"vote_encrypted","type":"bytes","internalType":"bytes"},{"name":"unblindedElectionToken","type":"bytes","internalType":"bytes"},{"name":"unblindedSignature","type":"bytes","internalType":"bytes"}],"outputs":[],"stateMutability":"nonpayable"},{"type":"event","name":"ElectionCanceled","inputs":[{"name":"electionID","type":"uint256","indexed":true,"internalType":"uint256"},{"name":"cancelReasonIPFSCID","type":"string","indexed":false,"internalType":"string"}],"anonymous":false},{"type":"event","name":"ElectionCreated","inputs":[{"name":"electionID","type":"uint256","indexed":true,"internalType":"uint256"},{"name":"startTime","type":"uint256","indexed":false,"internalType":"uint256"},{"name":"endTime","type":"uint256","indexed":false,"internalType":"uint256"},{"name":"registerId","type":"uint8","indexed":false,"internalType":"uint8"},{"name":"authProviderId","type":"uint8","indexed":false,"internalType":"uint8"},{"name":"svsId","type":"uint8","indexed":false,"internalType":"uint8"},{"name":"descriptionIPFSCID","type":"string","indexed":false,"internalType":"string"},{"name":"publicKey","type":"bytes","indexed":false,"internalType":"bytes"}],"anonymous":false},{"type":"event","name":"ElectionRegisterPublicKeySet","inputs":[{"name":"electionID","type":"uint256","indexed":true,"internalType":"uint256"},{"name":"n","type":"bytes","indexed":false,"internalType":"bytes"},{"name":"e","type":"bytes","indexed":false,"internalType":"bytes"}],"anonymous":false},{"type":"event","name":"ElectionResultsPublished","inputs":[{"name":"electionID","type":"uint256","indexed":true,"internalType":"uint256"},{"name":"privateKey","type":"bytes","indexed":false,"internalType":"bytes"},{"name":"yesVotes","type":"uint256[]","indexed":false,"internalType":"uint256[]"},{"name":"noVotes","type":"uint256[]","indexed":false,"internalType":"uint256[]"},{"name":"invalidVotes","type":"uint256[]","indexed":false,"internalType":"uint256[]"}],"anonymous":false},{"type":"event","name":"ElectionStatusChanged","inputs":[{"name":"electionID","type":"uint256","indexed":true,"internalType":"uint256"},{"name":"oldStatus","type":"uint8","indexed":false,"internalType":"enum ElectionStatus"},{"name":"newStatus","type":"uint8","indexed":false,"internalType":"enum ElectionStatus"}],"anonymous":false},{"type":"event","name":"OwnershipTransferred","inputs":[{"name":"previousOwner","type":"address","indexed":true,"internalType":"address"},{"name":"newOwner","type":"address","indexed":true,"internalType":"address"}],"anonymous":false},{"type":"event","name":"VoteCast","inputs":[{"name":"electionID","type":"uint256","indexed":true,"internalType":"uint256"},{"name":"voter","type":"address","indexed":true,"internalType":"address"},{"name":"svsSignature","type":"bytes","indexed":false,"internalType":"bytes"},{"name":"vote_encrypted","type":"bytes","indexed":false,"internalType":"bytes"},{"name":"unblindedElectionToken","type":"bytes","indexed":false,"internalType":"bytes"},{"name":"unblindedSignature","type":"bytes","indexed":false,"internalType":"bytes"}],"anonymous":false},{"type":"event","name":"VoteUpdated","inputs":[{"name":"electionID","type":"uint256","indexed":true,"internalType":"uint256"},{"name":"voter","type":"address","indexed":true,"internalType":"address"},{"name":"vote_encrypted","type":"bytes","indexed":false,"internalType":"bytes"}],"anonymous":false},{"type":"event","name":"VoterAuthorized","inputs":[{"name":"electionID","type":"uint256","indexed":true,"internalType":"uint256"},{"name":"voterID","type":"uint256","indexed":true,"internalType":"uint256"},{"name":"apID","type":"uint8","indexed":true,"internalType":"uint8"}],"anonymous":false},{"type":"event","name":"VoterRegistered","inputs":[{"name":"electionID","type":"uint256","indexed":true,"internalType":"uint256"},{"name":"voterID","type":"uint256","indexed":true,"internalType":"uint256"},{"name":"registerID","type":"uint8","indexed":true,"internalType":"uint8"},{"name":"blindedSignature","type":"bytes","indexed":false,"internalType":"bytes"},{"name":"blindedElectionToken","type":"bytes","indexed":false,"internalType":"bytes"}],"anonymous":false},{"type":"event","name":"VotersAuthorized","inputs":[{"name":"electionID","type":"uint256","indexed":true,"internalType":"uint256"},{"name":"voterIDs","type":"uint256[]","indexed":false,"internalType":"uint256[]"},{"name":"apID","type":"uint8","indexed":true,"internalType":"uint8"}],"anonymous":false},{"type":"event","name":"VotersRegistered","inputs":[{"name":"electionID","type":"uint256","indexed":true,"internalType":"uint256"},{"name":"voterIDs","type":"uint256[]","indexed":false,"internalType":"uint256[]"},{"name":"registerID","type":"uint8","indexed":true,"internalType":"uint8"},{"name":"blindedSignature","type":"bytes","indexed":false,"internalType":"bytes"},{"name":"blindedElectionToken","type":"bytes","indexed":false,"internalType":"bytes"}],"anonymous":false},{"type":"error","name":"ECDSAInvalidSignature","inputs":[]},{"type":"error","name":"ECDSAInvalidSignatureLength","inputs":[{"name":"length","type":"uint256","internalType":"uint256"}]},{"type":"error","name":"ECDSAInvalidSignatureS","inputs":[{"name":"s","type":"bytes32","internalType":"bytes32"}]},{"type":"error","name":"OwnableInvalidOwner","inputs":[{"name":"owner","type":"address","internalType":"address"}]},{"type":"error","name":"OwnableUnauthorizedAccount","inputs":[{"name":"account","type":"address","internalType":"address"}]}],"bytecode":{"object":"0x60a060405234610038576100196100146100fd565b61011e565b61002161003d565b614bed6102e98239608051816126350152614bed90f35b610043565b60405190565b5f80fd5b601f801991011690565b634e487b7160e01b5f52604160045260245ffd5b9061006f90610047565b810190811060018060401b0382111761008757604052565b610051565b9061009f61009861003d565b9283610065565b565b5f80fd5b60018060a01b031690565b6100b9906100a5565b90565b6100c5816100b0565b036100cc57565b5f80fd5b905051906100dd826100bc565b565b906020828203126100f8576100f5915f016100d0565b90565b6100a1565b61011b614ed6803803806101108161008c565b9283398101906100df565b90565b61012990339061012b565b565b906101359061018a565b608052565b90565b90565b61015461014f6101599261013a565b61013d565b6100a5565b90565b61016590610140565b90565b610171906100b0565b9052565b9190610188905f60208501940190610168565b565b806101a561019f61019a5f61015c565b6100b0565b916100b0565b146101b5576101b390610289565b565b6101d86101c15f61015c565b5f918291631e4fbdf760e01b835260048301610175565b0390fd5b5f1c90565b60018060a01b031690565b6101f86101fd916101dc565b6101e1565b90565b61020a90546101ec565b90565b5f1b90565b9061022360018060a01b039161020d565b9181191691161790565b61024161023c610246926100a5565b61013d565b6100a5565b90565b6102529061022d565b90565b61025e90610249565b90565b90565b9061027961027461028092610255565b610261565b8254610212565b9055565b5f0190565b6102925f610200565b61029c825f610264565b906102d06102ca7f8be0079c531659141344cd1fd0a4f28419497f9722a3daafe3b4186f6b6457e093610255565b91610255565b916102d961003d565b806102e381610284565b0390a356fe60806040526004361015610013575b611881565b61001d5f3561018c565b8063256fab2f1461018757806332d8fde0146101825780633ad71ded1461017d578063572b6c05146101785780635e6fef011461017357806362dc5b371461016e5780636d32dc4b14610169578063715018a6146101645780637da0a8771461015f57806388c7c0731461015a5780638b9f341b146101555780638da5cb5b146101505780639c98bcbb1461014b578063a4133feb14610146578063a67e65c314610141578063ad6e96f11461013c578063ae27a99c14610137578063b124798314610132578063ca3ebbca1461012d578063e1c67af414610128578063ed08dc3614610123578063f2fde38b1461011e5763ff6cc66e0361000e57611841565b611743565b611706565b611613565b61158b565b611487565b61139d565b61133d565b61123c565b6111b3565b61109b565b611066565b611032565b610fb3565b610f03565b610ebb565b610e79565b610e45565b610db3565b610899565b61081b565b61053c565b6103c7565b60e01c90565b60405190565b5f80fd5b5f80fd5b5f80fd5b5f80fd5b601f801991011690565b634e487b7160e01b5f52604160045260245ffd5b906101d0906101a8565b810190811067ffffffffffffffff8211176101ea57604052565b6101b2565b906102026101fb610192565b92836101c6565b565b5f80fd5b60ff1690565b61021781610208565b0361021e57565b5f80fd5b9050359061022f8261020e565b565b60018060a01b031690565b61024590610231565b90565b6102518161023c565b0361025857565b5f80fd5b9050359061026982610248565b565b5f80fd5b5f80fd5b67ffffffffffffffff81116102915761028d6020916101a8565b0190565b6101b2565b90825f939282370152565b909291926102b66102b182610273565b6101ef565b938185526020850190828401116102d2576102d092610296565b565b61026f565b9080601f830112156102f5578160206102f2933591016102a1565b90565b61026b565b9190916080818403126103885761031160806101ef565b9261031e815f8401610222565b5f85015261032f816020840161025c565b6020850152604082013567ffffffffffffffff811161038357816103549184016102d7565b6040850152606082013567ffffffffffffffff811161037e5761037792016102d7565b6060830152565b610204565b610204565b6101a4565b906020828203126103bd575f82013567ffffffffffffffff81116103b8576103b592016102fa565b90565b6101a0565b61019c565b5f0190565b346103f5576103df6103da36600461038d565b611daa565b6103e7610192565b806103f1816103c2565b0390f35b610198565b90565b610406816103fa565b0361040d57565b5f80fd5b9050359061041e826103fd565b565b5f80fd5b5f80fd5b909182601f830112156104625781359167ffffffffffffffff831161045d57602001926020830284011161045857565b610424565b610420565b61026b565b909182601f830112156104a15781359167ffffffffffffffff831161049c57602001926001830284011161049757565b610424565b610420565b61026b565b919091608081840312610537576104bf835f8301610411565b92602082013567ffffffffffffffff811161053257816104e0918401610428565b929093604082013567ffffffffffffffff811161052d5783610503918401610467565b929093606082013567ffffffffffffffff8111610528576105249201610467565b9091565b6101a0565b6101a0565b6101a0565b61019c565b346105715761055b61054f3660046104a6565b95949094939193611ff4565b610563610192565b8061056d816103c2565b0390f35b610198565b9060208282031261058f5761058c915f01610222565b90565b61019c565b90565b6105ab6105a66105b092610208565b610594565b610208565b90565b906105bd90610597565b5f5260205260405f2090565b5f1c90565b60ff1690565b6105e06105e5916105c9565b6105ce565b90565b6105f290546105d4565b90565b60081c90565b60018060a01b031690565b610612610617916105f5565b6105fb565b90565b6106249054610606565b90565b634e487b7160e01b5f52602260045260245ffd5b906001600283049216801561065b575b602083101461065657565b610627565b91607f169161064b565b60209181520190565b5f5260205f2090565b905f929180549061069161068a8361063b565b8094610665565b916001811690815f146106e857506001146106ac575b505050565b6106b9919293945061066e565b915f925b8184106106d057505001905f80806106a7565b600181602092959395548486015201910192906106bd565b92949550505060ff19168252151560200201905f80806106a7565b9061070d91610677565b90565b9061073061072992610720610192565b93848092610703565b03836101c6565b565b61073d9060026105b3565b906107495f83016105e8565b916107555f820161061a565b9161076e600261076760018501610710565b9301610710565b90565b61077a90610208565b9052565b6107879061023c565b9052565b5190565b60209181520190565b90825f9392825e0152565b6107c26107cb6020936107d0936107b98161078b565b9384809361078f565b95869101610798565b6101a8565b0190565b929061080a916107fd61081896946107f360808801945f890190610771565b602087019061077e565b84820360408601526107a3565b9160608184039101526107a3565b90565b3461084f5761084b610836610831366004610576565b610732565b90610842949294610192565b948594856107d4565b0390f35b610198565b9060208282031261086d5761086a915f0161025c565b90565b61019c565b151590565b61088090610872565b9052565b9190610897905f60208501940190610877565b565b346108c9576108c56108b46108af366004610854565b61211e565b6108bc610192565b91829182610884565b0390f35b610198565b906020828203126108e7576108e4915f01610411565b90565b61019c565b634e487b7160e01b5f52603260045260245ffd5b5490565b5f5260205f2090565b61091681610900565b82101561093057610928600e91610904565b910201905f90565b6108ec565b90565b610944610949916105c9565b610935565b90565b6109569054610938565b90565b61096561096a916105f5565b6105ce565b90565b6109779054610959565b90565b60101c90565b61098c6109919161097a565b6105ce565b90565b61099e9054610980565b90565b60181c90565b60ff1690565b6109b96109be916109a1565b6109a7565b90565b6109cb90546109ad565b90565b60209181520190565b5f5260205f2090565b905f92918054906109fa6109f38361063b565b80946109ce565b916001811690815f14610a515750600114610a15575b505050565b610a2291929394506109d7565b915f925b818410610a3957505001905f8080610a10565b60018160209295939554848601520191019290610a26565b92949550505060ff19168252151560200201905f8080610a10565b90610a76916109e0565b90565b90610a99610a9292610a89610192565b93848092610a6c565b03836101c6565b565b52565b610aa860406101ef565b90565b90610ae2610ad96001610abc610a9e565b94610ad3610acb5f8301610a79565b5f8801610a9b565b01610a79565b60208401610a9b565b565b600490610af082610900565b811015610bc457610b009161090d565b50610b0c5f820161094c565b91610b196001830161094c565b91610b266002820161094c565b91610b336003830161094c565b91610b406004820161094c565b91610b4d6005830161094c565b91610b5a600682016105e8565b91610b676006830161096d565b91610b7460068201610994565b91610b81600683016109c1565b91610b8e60088201610710565b91610b9b60098301610710565b91610ba8600a8201610a79565b91610bc1600c610bba600b8501610a79565b9301610aab565b90565b5f80fd5b610bd1906103fa565b9052565b634e487b7160e01b5f52602160045260245ffd5b60051115610bf357565b610bd5565b90610c0282610be9565b565b610c0d90610bf8565b90565b610c1990610c04565b9052565b5190565b60209181520190565b610c49610c52602093610c5793610c4081610c1d565b93848093610c21565b95869101610798565b6101a8565b0190565b610c7a610c83602093610c8893610c7181610c1d565b938480936109ce565b95869101610798565b6101a8565b0190565b610cba916020610ca9604083015f8501518482035f860152610c5b565b920151906020818403910152610c5b565b90565b809e9d9c9b9a989694929997959391996101e082019a5f8301610cdf91610bc8565b60208201610cec91610bc8565b604001610cf891610bc8565b60608d01610d0591610bc8565b60808c01610d1291610bc8565b60a08b01610d1f91610bc8565b60c08a01610d2c91610771565b60e08901610d3991610771565b6101008801610d4791610771565b6101208701610d5591610c10565b858103610140870152610d67916107a3565b848103610160860152610d79916107a3565b838103610180850152610d8b91610c2a565b8281036101a0840152610d9d91610c2a565b90808203906101c00152610db091610c8c565b90565b34610dfa5736610dc49060046108ce565b610dcd90610ae4565b9a610de89e9c9e9a919a999299989398979497969596610192565b9e8f9e8f9e610df69f610cbd565b0390f35b610198565b919091604081840312610e4057610e18835f8301610411565b92602082013567ffffffffffffffff8111610e3b57610e379201610428565b9091565b6101a0565b61019c565b34610e7457610e5e610e58366004610dff565b916121e0565b610e66610192565b80610e70816103c2565b0390f35b610198565b34610ea757610e91610e8c3660046108ce565b6125ec565b610e99610192565b80610ea3816103c2565b0390f35b610198565b5f910312610eb657565b61019c565b34610ee957610ecb366004610eac565b610ed361261c565b610edb610192565b80610ee5816103c2565b0390f35b610198565b9190610f01905f6020850194019061077e565b565b34610f3357610f13366004610eac565b610f2f610f1e61262a565b610f26610192565b91829182610eee565b0390f35b610198565b9190608083820312610fae57610f50815f8501610411565b92610f5e8260208301610411565b92604082013567ffffffffffffffff8111610fa95783610f7f918401610467565b929093606082013567ffffffffffffffff8111610fa457610fa09201610467565b9091565b6101a0565b6101a0565b61019c565b34610fe857610fd2610fc6366004610f38565b949390939291926126a3565b610fda610192565b80610fe4816103c2565b0390f35b610198565b91909160408184031261102d57611006835f8301610411565b92602082013567ffffffffffffffff81116110285761102592016102d7565b90565b6101a0565b61019c565b346110615761104b611045366004610fed565b906128c2565b611053610192565b8061105d816103c2565b0390f35b610198565b3461109657611076366004610eac565b6110926110816128ef565b611089610192565b91829182610eee565b0390f35b610198565b346110c9576110b36110ae3660046108ce565b6129b6565b6110bb610192565b806110c5816103c2565b0390f35b610198565b67ffffffffffffffff81116110ec576110e86020916101a8565b0190565b6101b2565b90929192611106611101826110ce565b6101ef565b938185526020850190828401116111225761112092610296565b565b61026f565b9080601f8301121561114557816020611142933591016110f1565b90565b61026b565b916060838303126111ae57611161825f8501610411565b92602081013567ffffffffffffffff81116111a95783611182918301611127565b92604082013567ffffffffffffffff81116111a4576111a19201611127565b90565b6101a0565b6101a0565b61019c565b346111e2576111cc6111c636600461114a565b91612c72565b6111d4610192565b806111de816103c2565b0390f35b610198565b906111f190610597565b5f5260205260405f2090565b6112089060036111e7565b906112145f83016105e8565b916112205f820161061a565b91611239600261123260018501610710565b9301610710565b90565b346112705761126c611257611252366004610576565b6111fd565b90611263949294610192565b948594856107d4565b0390f35b610198565b9190916080818403126113035761128c60806101ef565b92611299815f8401610222565b5f8501526112aa816020840161025c565b6020850152604082013567ffffffffffffffff81116112fe57816112cf9184016102d7565b6040850152606082013567ffffffffffffffff81116112f9576112f292016102d7565b6060830152565b610204565b610204565b6101a4565b90602082820312611338575f82013567ffffffffffffffff8111611333576113309201611275565b90565b6101a0565b61019c565b3461136b57611355611350366004611308565b612ec3565b61135d610192565b80611367816103c2565b0390f35b610198565b9190604083820312611398578061138c611395925f8601610411565b93602001610411565b90565b61019c565b346113cc576113b66113b0366004611370565b90612ece565b6113be610192565b806113c8816103c2565b0390f35b610198565b9060e08282031261146d576113e8815f8401610411565b926113f68260208501610411565b926114048360408301610222565b926114128160608401610222565b926114208260808501610222565b9260a081013567ffffffffffffffff811161146857836114419183016102d7565b9260c082013567ffffffffffffffff8111611463576114609201611127565b90565b6101a0565b6101a0565b61019c565b9190611485905f60208501940190610bc8565b565b346114be576114ba6114a961149d3660046113d1565b95949094939193613731565b6114b1610192565b91829182611472565b0390f35b610198565b919091608081840312611551576114da60806101ef565b926114e7815f8401610222565b5f8501526114f8816020840161025c565b6020850152604082013567ffffffffffffffff811161154c578161151d9184016102d7565b6040850152606082013567ffffffffffffffff81116115475761154092016102d7565b6060830152565b610204565b610204565b6101a4565b90602082820312611586575f82013567ffffffffffffffff81116115815761157e92016114c3565b90565b6101a0565b61019c565b346115b9576115a361159e366004611556565b613863565b6115ab610192565b806115b5816103c2565b0390f35b610198565b906115c890610597565b5f5260205260405f2090565b6115df9060016115be565b906115eb5f83016105e8565b916115f75f820161061a565b91611610600261160960018501610710565b9301610710565b90565b346116475761164361162e611629366004610576565b6115d4565b9061163a949294610192565b948594856107d4565b0390f35b610198565b60a08183031261170157611662825f8301610411565b92602082013567ffffffffffffffff81116116fc5783611683918401610428565b929093604082013567ffffffffffffffff81116116f757816116a6918401610428565b929093606082013567ffffffffffffffff81116116f257836116c9918401610428565b929093608082013567ffffffffffffffff81116116ed576116ea9201611127565b90565b6101a0565b6101a0565b6101a0565b6101a0565b61019c565b3461173e5761172861171936600461164c565b96959095949194939293613b62565b611730610192565b8061173a816103c2565b0390f35b610198565b346117715761175b611756366004610854565b613bd9565b611763610192565b8061176d816103c2565b0390f35b610198565b919060c08382031261183c5761178e815f8501610411565b9261179c826020830161025c565b92604082013567ffffffffffffffff811161183757836117bd918401610467565b929093606082013567ffffffffffffffff811161183257816117e0918401610467565b929093608082013567ffffffffffffffff811161182d5783611803918401610467565b92909360a082013567ffffffffffffffff8111611828576118249201610467565b9091565b6101a0565b6101a0565b6101a0565b6101a0565b61019c565b3461187c57611866611854366004611776565b9897909796919695929594939461420d565b61186e610192565b80611878816103c2565b0390f35b610198565b5f80fd5b61189690611891614527565b611d15565b565b6118a29051610208565b90565b90565b6118bc6118b76118c1926118a5565b610594565b610231565b90565b6118cd906118a8565b90565b5f7f494420616c726561647920757365640000000000000000000000000000000000910152565b611904600f60209261078f565b61190d816118d0565b0190565b6119269060208101905f8183039101526118f7565b90565b1561193057565b611938610192565b62461bcd60e51b81528061194e60048201611911565b0390fd5b61195c905161023c565b90565b5f7f4e6f206f776e6572207370656369666965640000000000000000000000000000910152565b611993601260209261078f565b61199c8161195f565b0190565b6119b59060208101905f818303910152611986565b90565b156119bf57565b6119c7610192565b62461bcd60e51b8152806119dd600482016119a0565b0390fd5b5f1b90565b906119f260ff916119e1565b9181191691161790565b90565b90611a14611a0f611a1b92610597565b6119fc565b82546119e6565b9055565b60081b90565b90611a38610100600160a81b0391611a1f565b9181191691161790565b611a56611a51611a5b92610231565b610594565b610231565b90565b611a6790611a42565b90565b611a7390611a5e565b90565b90565b90611a8e611a89611a9592611a6a565b611a76565b8254611a25565b9055565b5190565b601f602091010490565b1b90565b91906008611ac6910291611ac05f1984611aa7565b92611aa7565b9181191691161790565b611ae4611adf611ae9926103fa565b610594565b6103fa565b90565b90565b9190611b05611b00611b0d93611ad0565b611aec565b908354611aab565b9055565b5f90565b611b2791611b21611b11565b91611aef565b565b5b818110611b35575050565b80611b425f600193611b15565b01611b2a565b9190601f8111611b58575b505050565b611b64611b899361066e565b906020611b7084611a9d565b83019310611b91575b611b8290611a9d565b0190611b29565b5f8080611b53565b9150611b8281929050611b79565b1c90565b90611bb3905f1990600802611b9f565b191690565b81611bc291611ba3565b906002021790565b90611bd48161078b565b9067ffffffffffffffff8211611c9457611bf882611bf2855461063b565b85611b48565b602090601f8311600114611c2c57918091611c1b935f92611c20575b5050611bb8565b90555b565b90915001515f80611c14565b601f19831691611c3b8561066e565b925f5b818110611c7c57509160029391856001969410611c62575b50505002019055611c1e565b611c72910151601f841690611ba3565b90555f8080611c56565b91936020600181928787015181550195019201611c3e565b6101b2565b90611ca391611bca565b565b90611d0160606002611d0794611cc85f8201611cc25f8801611898565b906119ff565b611ce05f8201611cda60208801611952565b90611a79565b611cf960018201611cf360408801611a99565b90611c99565b019201611a99565b90611c99565b565b90611d1391611ca5565b565b611da890611d5c611d3c5f611d366001611d30838701611898565b906115be565b0161061a565b611d56611d50611d4b5f6118c4565b61023c565b9161023c565b14611929565b611d8c611d6b60208301611952565b611d85611d7f611d7a5f6118c4565b61023c565b9161023c565b14156119b8565b611da381611d9d5f60019201611898565b906115be565b611d09565b565b611db390611885565b565b5f7f4f6e6c79205265676973746572204f776e657200000000000000000000000000910152565b611de9601360209261078f565b611df281611db5565b0190565b611e0b9060208101905f818303910152611ddc565b90565b15611e1557565b611e1d610192565b62461bcd60e51b815280611e3360048201611df6565b0390fd5b5090565b611e4f611e4a611e54926118a5565b610594565b6103fa565b90565b5f7f426c696e646564205369676e6174757265207265717569726564000000000000910152565b611e8b601a60209261078f565b611e9481611e57565b0190565b611ead9060208101905f818303910152611e7e565b90565b15611eb757565b611ebf610192565b62461bcd60e51b815280611ed560048201611e98565b0390fd5b5090565b634e487b7160e01b5f52601160045260245ffd5b611f00611f06919392936103fa565b926103fa565b8201809211611f1157565b611edd565b90611f225f19916119e1565b9181191691161790565b90611f41611f3c611f4892611ad0565b611aec565b8254611f16565b9055565b60209181520190565b5f80fd5b9037565b909182611f6991611f4c565b9160018060fb1b038111611f8c5782916020611f889202938491611f59565b0190565b611f55565b9190611fab81611fa481611fb095610c21565b8095610296565b6101a8565b0190565b94929093611fd5611ff19795611fe39460608901918983035f8b0152611f5d565b918683036020880152611f91565b926040818503910152611f91565b90565b9294612115919496612014600661200d6004889061090d565b50016105e8565b946120463361204061203a6120355f61202f60018d906115be565b0161061a565b61023c565b9161023c565b14611e0e565b61206c612054898b90611e37565b6120666120605f611e3b565b916103fa565b11611eb0565b61209261207a848490611e37565b61208c6120865f611e3b565b916103fa565b11611eb0565b6120c86120a0888790611ed9565b6120c260056120b16004869061090d565b5001916120bd8361094c565b611ef1565b90611f2c565b95939496979190916121036120fd7ff6da39384f715811f0feea8a8e1fffa76fa54b4716ce679ba96b616d4acbddef98611ad0565b98610597565b9861210c610192565b96879687611fb4565b0390a3565b5f90565b61212661211a565b5061214061213a61213561262a565b61023c565b9161023c565b1490565b5f7f4f6e6c79204150204f776e657200000000000000000000000000000000000000910152565b612178600d60209261078f565b61218181612144565b0190565b61219a9060208101905f81830391015261216b565b90565b156121a457565b6121ac610192565b62461bcd60e51b8152806121c260048201612185565b0390fd5b90916121dd9260208301925f818503910152611f5d565b90565b906121f960066121f26004859061090d565b500161096d565b9161222b3361222561221f61221a5f61221460038a906111e7565b0161061a565b61023c565b9161023c565b1461219d565b612260612239838690611ed9565b61225a600461224981869061090d565b5001916122558361094c565b611ef1565b90611f2c565b909261229561228f7f75fccf1e7f4d6ed8c2f55bfcfd5593f7e4ee4323d013c99b055ca000cc454e1c93611ad0565b93610597565b936122aa6122a1610192565b928392836121c6565b0390a3565b6122c0906122bb614527565b6124c9565b565b90565b5f7f746f6f206561726c790000000000000000000000000000000000000000000000910152565b6122f9600960209261078f565b612302816122c5565b0190565b61231b9060208101905f8183039101526122ec565b90565b1561232557565b61232d610192565b62461bcd60e51b81528061234360048201612306565b0390fd5b5f7f746f6f206c617465000000000000000000000000000000000000000000000000910152565b61237b600860209261078f565b61238481612347565b0190565b61239d9060208101905f81830391015261236e565b90565b156123a757565b6123af610192565b62461bcd60e51b8152806123c560048201612388565b0390fd5b6123d3905461063b565b90565b5f7f5265676973746572204b65792072657175697265640000000000000000000000910152565b61240a601560209261078f565b612413816123d6565b0190565b61242c9060208101905f8183039101526123fd565b90565b1561243657565b61243e610192565b62461bcd60e51b81528061245460048201612417565b0390fd5b60181b90565b9061246d63ff00000091612458565b9181191691161790565b61248090610bf8565b90565b90565b9061249b6124966124a292612477565b612483565b825461245e565b9055565b9160206124c79294936124c060408201965f830190610c10565b0190610c10565b565b6124de6124d86004839061090d565b506122c2565b906125076124ee6001840161094c565b6125006124fa426103fa565b916103fa565b111561231e565b61252e6125166002840161094c565b612528612522426103fa565b916103fa565b116123a0565b61253c5f600c8401016123c9565b61254e6125485f611e3b565b916103fa565b11806125bf575b61255e9061242f565b61257961256d600684016109c1565b92600660019101612486565b60016125a57f12b37df6c3e196249962cd4347a3d9d9e6444d63d7f1bd286129f93ca919fb3d92611ad0565b926125ba6125b1610192565b928392836124a6565b0390a2565b5061255e6125d26001600c8501016123c9565b6125e46125de5f611e3b565b916103fa565b119050612555565b6125f5906122af565b565b6125ff614527565b612607612609565b565b61261a6126155f6118c4565b6145b0565b565b6126246125f7565b565b5f90565b612632612626565b507f000000000000000000000000000000000000000000000000000000000000000090565b90565b61266e61266961267392612657565b610594565b6103fa565b90565b9290612692906126a0959360408601918683035f880152611f91565b926020818503910152611f91565b90565b92939091936127ca6126c360066126bc6004889061090d565b50016105e8565b946126f5336126ef6126e96126e45f6126de60018d906115be565b0161061a565b61023c565b9161023c565b14611e0e565b61271b612703888590611e37565b61271561270f5f611e3b565b916103fa565b11611eb0565b612741612729858a90611e37565b61273b6127355f611e3b565b916103fa565b11611eb0565b61277661274e600161265a565b612770600561275f6004869061090d565b50019161276b8361094c565b611ef1565b90611f2c565b9394959192966127b86127b26127ac7f2c5dc525450bc5b952dc01497602a143979bc76ab18f35f7f88265155fe5364d97611ad0565b97611ad0565b97610597565b976127c1610192565b94859485612676565b0390a4565b906127e1916127dc614527565b6127fb565b565b6127f89160208201915f8184039101526107a3565b90565b61281061280a6004839061090d565b506122c2565b91612839612820600685016109c1565b9361282f600460068301612486565b6008839101611c99565b816128796128677f16855b8fd590df07334beb9055e3e43a8856ad0a085241abb0fd4071c4b440bf92611ad0565b92612870610192565b918291826127e3565b0390a260046128a87f12b37df6c3e196249962cd4347a3d9d9e6444d63d7f1bd286129f93ca919fb3d92611ad0565b926128bd6128b4610192565b928392836124a6565b0390a2565b906128cc916127cf565b565b6128da6128df916105c9565b6105fb565b90565b6128ec90546128ce565b90565b6128f7612626565b506129015f6128e2565b90565b61291590612910614527565b612917565b565b61292c6129266004839061090d565b506122c2565b9061295561293c6002840161094c565b61294e612948426103fa565b916103fa565b111561231e565b612970612964600684016109c1565b92600660029101612486565b600261299c7f12b37df6c3e196249962cd4347a3d9d9e6444d63d7f1bd286129f93ca919fb3d92611ad0565b926129b16129a8610192565b928392836124a6565b0390a2565b6129bf90612904565b565b5f7f4f6e6c7920526567697374657200000000000000000000000000000000000000910152565b6129f5600d60209261078f565b6129fe816129c1565b0190565b612a179060208101905f8183039101526129e8565b90565b15612a2157565b612a29610192565b62461bcd60e51b815280612a3f60048201612a02565b0390fd5b5f7f456c656374696f6e206e6f7420616374697665206f722070656e64696e670000910152565b612a77601e60209261078f565b612a8081612a43565b0190565b612a999060208101905f818303910152612a6a565b90565b15612aa357565b612aab610192565b62461bcd60e51b815280612ac160048201612a84565b0390fd5b612acf60406101ef565b90565b5190565b9190601f8111612ae6575b505050565b612af2612b17936109d7565b906020612afe84611a9d565b83019310612b1f575b612b1090611a9d565b0190611b29565b5f8080612ae1565b9150612b1081929050612b07565b90612b3781610c1d565b9067ffffffffffffffff8211612bf757612b5b82612b55855461063b565b85612ad6565b602090601f8311600114612b8f57918091612b7e935f92612b83575b5050611bb8565b90555b565b90915001515f80612b77565b601f19831691612b9e856109d7565b925f5b818110612bdf57509160029391856001969410612bc5575b50505002019055612b81565b612bd5910151601f841690611ba3565b90555f8080612bb9565b91936020600181928787015181550195019201612ba1565b6101b2565b90612c0691612b2d565b565b90612c3360206001612c3994612c2b5f8201612c255f8801612ad2565b90612bfc565b019201612ad2565b90612bfc565b565b90612c4591612c08565b565b9091612c61612c6f9360408401908482035f860152610c2a565b916020818403910152610c2a565b90565b612cb9612ca15f612c9b612c946006612c8d6004889061090d565b50016105e8565b60016115be565b0161061a565b612cb3612cad3361023c565b9161023c565b14612a1a565b612cd16006612cca6004849061090d565b50016109c1565b612ce3612cdd5f610bf8565b91610bf8565b148015612d74575b612cf490612a9c565b612d2e82612d1985612d10612d07612ac5565b935f8501610a9b565b60208301610a9b565b600c612d276004859061090d565b5001612c3b565b9091612d5a7fd564ae0c19e7c4abf1a013f9e736abe2695aa574026614ed29237392b84fa02f92611ad0565b92612d6f612d66610192565b92839283612c47565b0390a2565b50612cf4612d906006612d896004859061090d565b50016109c1565b612da3612d9d6001610bf8565b91610bf8565b149050612ceb565b612dbc90612db7614527565b612e2e565b565b90612e1a60606002612e2094612de15f8201612ddb5f8801611898565b906119ff565b612df95f8201612df360208801611952565b90611a79565b612e1260018201612e0c60408801611a99565b90611c99565b019201611a99565b90611c99565b565b90612e2c91612dbe565b565b612ec190612e75612e555f612e4f6003612e49838701611898565b906111e7565b0161061a565b612e6f612e69612e645f6118c4565b61023c565b9161023c565b14611929565b612ea5612e8460208301611952565b612e9e612e98612e935f6118c4565b61023c565b9161023c565b14156119b8565b612ebc81612eb65f60039201611898565b906111e7565b612e22565b565b612ecc90612dab565b565b612ee66006612edf6004849061090d565b500161096d565b90612f1833612f12612f0c612f075f612f01600389906111e7565b0161061a565b61023c565b9161023c565b1461219d565b612f4c612f25600161265a565b612f466004612f3581869061090d565b500191612f418361094c565b611ef1565b90611f2c565b91612f89612f83612f7d7ffdc9f15cdb5775fdc9cb8210e4bbe880f3087e8e7671807001291e20c87c170395611ad0565b92611ad0565b92610597565b92612f92610192565b80612f9c816103c2565b0390a4565b90612fb997969594939291612fb4614527565b6134e8565b90565b60207f6d652e0000000000000000000000000000000000000000000000000000000000917f53746172742074696d65206d757374206265206265666f726520656e642074695f8201520152565b613016602360409261078f565b61301f81612fbc565b0190565b6130389060208101905f818303910152613009565b90565b1561304257565b61304a610192565b62461bcd60e51b81528061306060048201613023565b0390fd5b5f7f53746172742074696d6520696e20706173740000000000000000000000000000910152565b613098601260209261078f565b6130a181613064565b0190565b6130ba9060208101905f81830391015261308b565b90565b156130c457565b6130cc610192565b62461bcd60e51b8152806130e2600482016130a5565b0390fd5b5f7f496e76616c696420726567697374657249440000000000000000000000000000910152565b61311a601260209261078f565b613123816130e6565b0190565b61313c9060208101905f81830391015261310d565b90565b1561314657565b61314e610192565b62461bcd60e51b81528061316460048201613127565b0390fd5b5f7f496e76616c6964206175746850726f7669646572496400000000000000000000910152565b61319c601660209261078f565b6131a581613168565b0190565b6131be9060208101905f81830391015261318f565b90565b156131c857565b6131d0610192565b62461bcd60e51b8152806131e6600482016131a9565b0390fd5b5f7f496e76616c696420737673496400000000000000000000000000000000000000910152565b61321e600d60209261078f565b613227816131ea565b0190565b6132409060208101905f818303910152613211565b90565b1561324a57565b613252610192565b62461bcd60e51b8152806132686004820161322b565b0390fd5b90565b5f7f496e76616c6964206465736372697074696f6e20434944000000000000000000910152565b6132a3601760209261078f565b6132ac8161326f565b0190565b6132c59060208101905f818303910152613296565b90565b156132cf57565b6132d7610192565b62461bcd60e51b8152806132ed600482016132b0565b0390fd5b5f7f496e76616c696420656c656374696f6e205075624b6579000000000000000000910152565b613325601760209261078f565b61332e816132f1565b0190565b6133479060208101905f818303910152613318565b90565b1561335157565b613359610192565b62461bcd60e51b81528061336f60048201613332565b0390fd5b90565b5490565b5f5260205f2090565b61338c81613376565b8210156133a65761339e600e9161337a565b910201905f90565b6108ec565b6133b481613376565b680100000000000000008110156133d8576133d491600182018155613383565b9091565b6101b2565b6133ec6133f2919392936103fa565b926103fa565b82039182116133fd57565b611edd565b9061340f61ff0091611a1f565b9181191691161790565b9061342e61342961343592610597565b6119fc565b8254613402565b9055565b60101b90565b9061344d62ff000091613439565b9181191691161790565b9061346c61346761347392610597565b6119fc565b825461343f565b9055565b9591946134c06134d7956134b689966134ac6134e59c9a6134a26134ca985f60e08d019c0190610bc8565b60208d0190610bc8565b60408b0190610771565b6060890190610771565b6080870190610771565b84820360a08601526107a3565b9160c0818403910152610c2a565b90565b9661372b9293949697959195506135118661350b613505876103fa565b916103fa565b1061303b565b61352d86613527613521426103fa565b916103fa565b116130bd565b6135676135465f613540600189906115be565b0161061a565b61356061355a6135555f6118c4565b61023c565b9161023c565b141561313f565b6135a16135805f61357a60038b906111e7565b0161061a565b61359a61359461358f5f6118c4565b61023c565b9161023c565b14156131c1565b6135db6135ba5f6135b4600286906105b3565b0161061a565b6135d46135ce6135c95f6118c4565b61023c565b9161023c565b1415613243565b6136076135ef6135ea8a61326c565b610c1d565b6136016135fb5f611e3b565b916103fa565b116132c8565b61362b61361382610c1d565b61362561361f5f611e3b565b916103fa565b1161334a565b61363d6136386004613373565b6133ab565b505061365c61364c6004610900565b613656600161265a565b906133dd565b976136e661367561366f60048c9061090d565b506122c2565b6136825f60068301612486565b61368e8b5f8301611f2c565b61369b8360098301611c99565b6136a88960018301611f2c565b6136b58760028301611f2c565b6136c288600683016119ff565b6136cf8a60068301613419565b6136dc8560068301613457565b600a849101612bfc565b8896949597929091926137197f156278f14e9e7a4cae711d0a34c4509a150ed6f3c9365eb06f33bafe8ee520de98611ad0565b98613722610192565b97889788613477565b0390a290565b90613748969594939291613743611b11565b612fa1565b90565b61375c90613757614527565b6137ce565b565b906137ba606060026137c0946137815f820161377b5f8801611898565b906119ff565b6137995f820161379360208801611952565b90611a79565b6137b2600182016137ac60408801611a99565b90611c99565b019201611a99565b90611c99565b565b906137cc9161375e565b565b613861906138156137f55f6137ef60026137e9838701611898565b906105b3565b0161061a565b61380f6138096138045f6118c4565b61023c565b9161023c565b14611929565b61384561382460208301611952565b61383e6138386138335f6118c4565b61023c565b9161023c565b14156119b8565b61385c816138565f60029201611898565b906105b3565b6137c2565b565b61386c9061374b565b565b9061388697969594939291613881614527565b613a04565b565b5f7f456c656374696f6e206e6f7420656e6465640000000000000000000000000000910152565b6138bc601260209261078f565b6138c581613888565b0190565b6138de9060208101905f8183039101526138af565b90565b156138e857565b6138f0610192565b62461bcd60e51b815280613906600482016138c9565b0390fd5b60207f65206c656e6774682e0000000000000000000000000000000000000000000000917f526573756c747320617272617973206d7573742068617665207468652073616d5f8201520152565b613964602960409261078f565b61396d8161390a565b0190565b6139869060208101905f818303910152613957565b90565b1561399057565b613998610192565b62461bcd60e51b8152806139ae60048201613971565b0390fd5b9593916139e5906139f3946139d7613a019a989460808b01908b82035f8d0152610c2a565b9189830360208b0152611f5d565b918683036040880152611f5d565b926060818503910152611f5d565b90565b969495613ae39294919396613a9e613a27613a2160048c9061090d565b506122c2565b613a4f613a36600683016109c1565b613a49613a436002610bf8565b91610bf8565b146138e1565b613a5a878990611ed9565b613a76613a70613a6b8d8990611ed9565b6103fa565b916103fa565b1480613b2f575b613a8690613989565b613a94600360068301612486565b600b899101612bfc565b889694959792909192613ad17f7fcd094554b47e375d6a1b9177531c60274153841ea6bb7d55eda281b925af5f98611ad0565b98613ada610192565b978897886139b2565b0390a26002906003613b157f12b37df6c3e196249962cd4347a3d9d9e6444d63d7f1bd286129f93ca919fb3d92611ad0565b92613b2a613b21610192565b928392836124a6565b0390a2565b50613a86613b3e8b8790611ed9565b613b5a613b54613b4f878990611ed9565b6103fa565b916103fa565b149050613a7d565b90613b729796959493929161386e565b565b613b8590613b80614527565b613b87565b565b80613ba2613b9c613b975f6118c4565b61023c565b9161023c565b14613bb257613bb0906145b0565b565b613bd5613bbe5f6118c4565b5f918291631e4fbdf760e01b835260048301610eee565b0390fd5b613be290613b74565b565b5f7f766f746520656d70747900000000000000000000000000000000000000000000910152565b613c18600a60209261078f565b613c2181613be4565b0190565b613c3a9060208101905f818303910152613c0b565b90565b15613c4457565b613c4c610192565b62461bcd60e51b815280613c6260048201613c25565b0390fd5b5f7f456c656374696f6e206973206e6f742061637469766500000000000000000000910152565b613c9a601660209261078f565b613ca381613c66565b0190565b613cbc9060208101905f818303910152613c8d565b90565b15613cc657565b613cce610192565b62461bcd60e51b815280613ce460048201613ca7565b0390fd5b5f7f456c656374696f6e20656e646564000000000000000000000000000000000000910152565b613d1c600e60209261078f565b613d2581613ce8565b0190565b613d3e9060208101905f818303910152613d0f565b90565b15613d4857565b613d50610192565b62461bcd60e51b815280613d6660048201613d29565b0390fd5b90613d7490611a6a565b5f5260205260405f2090565b60ff1690565b613d92613d97916105c9565b613d80565b90565b613da49054613d86565b90565b5f7f766f74657220756e6b6e6f776e00000000000000000000000000000000000000910152565b613ddb600d60209261078f565b613de481613da7565b0190565b613dfd9060208101905f818303910152613dce565b90565b15613e0757565b613e0f610192565b62461bcd60e51b815280613e2560048201613de8565b0390fd5b9091613e409260208301925f818503910152611f91565b90565b5f7f535653206e6f7420737065636966696564000000000000000000000000000000910152565b613e77601160209261078f565b613e8081613e43565b0190565b613e999060208101905f818303910152613e6a565b90565b15613ea357565b613eab610192565b62461bcd60e51b815280613ec160048201613e84565b0390fd5b5f7f756e626c696e6465645369676e617475726520656d7074790000000000000000910152565b613ef9601860209261078f565b613f0281613ec5565b0190565b613f1b9060208101905f818303910152613eec565b90565b15613f2557565b613f2d610192565b62461bcd60e51b815280613f4360048201613f06565b0390fd5b5f7f756e626c696e646564456c656374696f6e546f6b656e20656d70747900000000910152565b613f7b601c60209261078f565b613f8481613f47565b0190565b613f9d9060208101905f818303910152613f6e565b90565b15613fa757565b613faf610192565b62461bcd60e51b815280613fc560048201613f88565b0390fd5b5f7f416c726561647920766f74656400000000000000000000000000000000000000910152565b613ffd600d60209261078f565b61400681613fc9565b0190565b61401f9060208101905f818303910152613ff0565b90565b1561402957565b614031610192565b62461bcd60e51b8152806140476004820161400a565b0390fd5b90565b61405a61405f916103fa565b61404b565b9052565b60601b90565b61407290614063565b90565b61407e90614069565b90565b61408d6140929161023c565b614075565b9052565b905090565b9091826140ab816140b293614096565b8093610296565b0190565b9360146140e6936140df6020886140d76140ec9b9a6140f29f9d9a9861404e565b018092614081565b019161409b565b9161409b565b9161409b565b90565b60200190565b6141069136916110f1565b90565b5f7f53696720696e76616c6964000000000000000000000000000000000000000000910152565b61413d600b60209261078f565b61414681614109565b0190565b61415f9060208101905f818303910152614130565b90565b1561416957565b614171610192565b62461bcd60e51b8152806141876004820161414a565b0390fd5b61419490610872565b90565b90565b906141af6141aa6141b69261418b565b614197565b82546119e6565b9055565b9694926141fc946141e06141ee9361420a9b999560808c01918c5f818503910152611f91565b9189830360208b0152611f91565b918683036040880152611f91565b926060818503910152611f91565b90565b9891979096929394959861422c6142266004839061090d565b506122c2565b61425261423a888a90611e37565b61424c6142465f611e3b565b916103fa565b11613c3d565b61427a614261600683016109c1565b61427461426e6001610bf8565b91610bf8565b14613cbf565b6142a26142896002830161094c565b61429b614295426103fa565b916103fa565b1015613d41565b6142ad8a8790611e37565b6142bf6142b95f611e3b565b916103fa565b115f1461449a576002816006016142d590610994565b6142de916105b3565b5f016142e99061061a565b805f6142f4906118c4565b6142fd9061023c565b906143079061023c565b141561431290613e9c565b838561431d91611e37565b5f61432790611e3b565b90614331906103fa565b1161433b90613f1e565b8b8661434691611e37565b5f61435090611e3b565b9061435a906103fa565b1161436490613fa0565b816007018a61437291613d6a565b61437b90613d9a565b1561438590610872565b61438e90614022565b8b838b908a928c908a89918b936143a3610192565b97889760208901976143b4986140b6565b6020820181038252036143c790826101c6565b6143d081610c1d565b906143da906140f5565b20908b886143e7916140fb565b6143f092614623565b6143f990614162565b60016144049061265a565b81600301906144128261094c565b9061441c91611ef1565b61442591611f2c565b6001906007018961443591613d6a565b9061443f9161419a565b969793949598929091927fe14ef84552be78056208429105497c98038b42888a5514c26859cf725bf308159761447490611ad0565b9861447e90611a6a565b99614487610192565b97889761449497896141ba565b0390a35b565b92509650506144cd9497506144c89396506144c3925060079150016144bd61460f565b90613d6a565b613d9a565b613e00565b6144d561460f565b919261450a6145047f7c1b6e0bead11af4a2228a932e5f9347a734ce6a77fa9dd16340629dc6761e4993611ad0565b93611a6a565b9361451f614516610192565b92839283613e29565b0390a3614498565b61452f6128ef565b61454861454261453d61460f565b61023c565b9161023c565b0361454f57565b61457161455a61460f565b5f91829163118cdaa760e01b835260048301610eee565b0390fd5b9061458660018060a01b03916119e1565b9181191691161790565b906145a56145a06145ac92611a6a565b611a76565b8254614575565b9055565b6145b95f6128e2565b6145c3825f614590565b906145f76145f17f8be0079c531659141344cd1fd0a4f28419497f9722a3daafe3b4186f6b6457e093611a6a565b91611a6a565b91614600610192565b8061460a816103c2565b0390a3565b614617612626565b50614620614701565b90565b6146446146509261463f61464a9361463961211a565b5061478b565b6147c1565b9261023c565b9161023c565b1490565b5f80fd5b5f80fd5b9093929384831161467c578411614677576001820201920390565b614658565b614654565b6bffffffffffffffffffffffff191690565b906146a16146a89183611e37565b9135614681565b90601481106146b6575b5090565b6146d4906bffffffffffffffffffffffff1990601403600802611aa7565b165f6146b2565b60601c90565b6146ed6146f2916146db565b611a42565b90565b6146fe906146e1565b90565b614709612626565b506147155f3690611e37565b61471d614802565b6147263361211e565b8061476c575b5f1461475f576147516147579161475c936147495f9236926133dd565b90809261465c565b90614693565b6146f5565b90565b5050614769614818565b90565b508161478061477a836103fa565b916103fa565b101561472c565b5f90565b614793614787565b507f19457468657265756d205369676e6564204d6573736167653a0a3332000000005f52601c52603c5f2090565b6147e0916147d7916147d1612626565b5061486b565b90929192614961565b90565b90565b6147fa6147f56147ff926147e3565b610594565b6103fa565b90565b61480a611b11565b5061481560146147e6565b90565b614820612626565b503390565b5f90565b90565b61484061483b61484592614829565b610594565b6103fa565b90565b90565b61485f61485a614864926103fa565b6119e1565b614848565b90565b5f90565b919091614876612626565b5061487f614825565b50614888614787565b5061489283610c1d565b6148a561489f604161482c565b916103fa565b145f146148ec576148e591926148b9614787565b506148c2614787565b506148cb614867565b506020810151606060408301519201515f1a909192614abb565b9192909190565b506148f65f6118c4565b9061490a614905600294610c1d565b61484b565b91929190565b6004111561491a57565b610bd5565b9061492982614910565b565b61493490614848565b9052565b919061494b905f6020850194019061492b565b565b61495961495e916105c9565b611ad0565b90565b8061497461496e5f61491f565b9161491f565b145f1461497f575050565b8061499361498d600161491f565b9161491f565b145f146149b6575f63f645eedf60e01b8152806149b2600482016103c2565b0390fd5b806149ca6149c4600261491f565b9161491f565b145f146149f8576149f46149dd8361494d565b5f91829163fce698f760e01b835260048301611472565b0390fd5b614a0b614a05600361491f565b9161491f565b14614a135750565b614a2e905f9182916335e2f38360e21b835260048301614938565b0390fd5b90565b614a49614a44614a4e92614a32565b610594565b6103fa565b90565b614a86614a8d94614a7c606094989795614a72608086019a5f87019061492b565b6020850190610771565b604083019061492b565b019061492b565b565b614a97610192565b3d5f823e3d90fd5b614ab3614aae614ab8926118a5565b6119e1565b614848565b90565b939293614ac6612626565b50614acf614825565b50614ad8614787565b50614ae28561494d565b614b14614b0e7f7fffffffffffffffffffffffffffffff5d576e7357a4501ddfe92f46681b20a0614a35565b916103fa565b11614ba15790614b37602094955f94939293614b2e610192565b94859485614a51565b838052039060015afa15614b9c57614b4f5f516119e1565b80614b6a614b64614b5f5f6118c4565b61023c565b9161023c565b14614b80575f91614b7a5f614a9f565b91929190565b50614b8a5f6118c4565b600191614b965f614a9f565b91929190565b614a8f565b505050614bad5f6118c4565b906003929192919056fea26469706673582212200bf3e5bf3dd308e3de1884a8f16c878f61302a3d37ecec206d3cd5ea24bdf3cd64736f6c634300081b0033","linkReferences":{}},"methodIdentifiers":{"addAP((uint8,address,string,string))":"ad6e96f1","addRegister((uint8,address,string,string))":"256fab2f","addSVS((uint8,address,string,string))":"ca3ebbca","aps(uint8)":"a67e65c3","authorizeVoter(uint256,uint256)":"ae27a99c","authorizeVoters(uint256,uint256[])":"62dc5b37","cancelElection(uint256,string)":"8b9f341b","createElection(uint256,uint256,uint8,uint8,uint8,string,bytes)":"b1247983","elections(uint256)":"5e6fef01","endElection(uint256)":"9c98bcbb","isTrustedForwarder(address)":"572b6c05","owner()":"8da5cb5b","publishElectionResults(uint256,uint256[],uint256[],uint256[],bytes)":"ed08dc36","registerVoter(uint256,uint256,bytes,bytes)":"88c7c073","registerVoters(uint256,uint256[],bytes,bytes)":"32d8fde0","registers(uint8)":"e1c67af4","renounceOwnership()":"715018a6","setElectionRegisterPublicKey(uint256,bytes,bytes)":"a4133feb","startElection(uint256)":"6d32dc4b","svss(uint8)":"3ad71ded","transferOwnership(address)":"f2fde38b","trustedForwarder()":"7da0a877","vote(uint256,address,bytes,bytes,bytes,bytes)":"ff6cc66e"},"id":38}