{"abi":[{"type":"constructor","inputs":[{"name":"_trustedForwarder","type":"address","internalType":"address"}],"stateMutability":"nonpayable"},{"type":"function","name":"addAP","inputs":[{"name":"newAP","type":"tuple","internalType":"struct AuthorizationProvider","components":[{"name":"id","type":"uint8","internalType":"uint8"},{"name":"owner","type":"address","internalType":"address"},{"name":"apName","type":"string","internalType":"string"},{"name":"apURI","type":"string","internalType":"string"}]}],"outputs":[],"stateMutability":"nonpayable"},{"type":"function","name":"addRegister","inputs":[{"name":"newRegister","type":"tuple","internalType":"struct Register","components":[{"name":"id","type":"uint8","internalType":"uint8"},{"name":"owner ","type":"address","internalType":"address"},{"name":"registerName","type":"string","internalType":"string"},{"name":"registerURI","type":"string","internalType":"string"}]}],"outputs":[],"stateMutability":"nonpayable"},{"type":"function","name":"addSVS","inputs":[{"name":"newSVS","type":"tuple","internalType":"struct SignatureValidationServer","components":[{"name":"id","type":"uint8","internalType":"uint8"},{"name":"owner","type":"address","internalType":"address"},{"name":"svsName","type":"string","internalType":"string"},{"name":"svsURI","type":"string","internalType":"string"}]}],"outputs":[],"stateMutability":"nonpayable"},{"type":"function","name":"aps","inputs":[{"name":"","type":"uint8","internalType":"uint8"}],"outputs":[{"name":"id","type":"uint8","internalType":"uint8"},{"name":"owner","type":"address","internalType":"address"},{"name":"apName","type":"string","internalType":"string"},{"name":"apURI","type":"string","internalType":"string"}],"stateMutability":"view"},{"type":"function","name":"authorizeVoter","inputs":[{"name":"electionID","type":"uint256","internalType":"uint256"},{"name":"voterID","type":"uint256","internalType":"uint256"}],"outputs":[],"stateMutability":"nonpayable"},{"type":"function","name":"authorizeVoters","inputs":[{"name":"electionID","type":"uint256","internalType":"uint256"},{"name":"voterIDs","type":"uint256[]","internalType":"uint256[]"}],"outputs":[],"stateMutability":"nonpayable"},{"type":"function","name":"cancelElection","inputs":[{"name":"electionID","type":"uint256","internalType":"uint256"},{"name":"cancelReasonIPFSCID","type":"string","internalType":"string"}],"outputs":[],"stateMutability":"nonpayable"},{"type":"function","name":"createElection","inputs":[{"name":"startTime","type":"uint256","internalType":"uint256"},{"name":"endTime","type":"uint256","internalType":"uint256"},{"name":"registerID","type":"uint8","internalType":"uint8"},{"name":"authProviderId","type":"uint8","internalType":"uint8"},{"name":"svsId","type":"uint8","internalType":"uint8"},{"name":"descriptionIPFSCID","type":"string","internalType":"string"},{"name":"publicKey","type":"bytes","internalType":"bytes"}],"outputs":[{"name":"createdElectionID","type":"uint256","internalType":"uint256"}],"stateMutability":"nonpayable"},{"type":"function","name":"elections","inputs":[{"name":"","type":"uint256","internalType":"uint256"}],"outputs":[{"name":"electionID","type":"uint256","internalType":"uint256"},{"name":"startTime","type":"uint256","internalType":"uint256"},{"name":"endTime","type":"uint256","internalType":"uint256"},{"name":"totalVotes","type":"uint256","internalType":"uint256"},{"name":"totalAuthorized","type":"uint256","internalType":"uint256"},{"name":"totalRegistered","type":"uint256","internalType":"uint256"},{"name":"registerID","type":"uint8","internalType":"uint8"},{"name":"authProviderId","type":"uint8","internalType":"uint8"},{"name":"svsId","type":"uint8","internalType":"uint8"},{"name":"status","type":"uint8","internalType":"enum ElectionStatus"},{"name":"cancelReasonIPFSCID","type":"string","internalType":"string"},{"name":"descriptionIPFSCID","type":"string","internalType":"string"},{"name":"publicKey","type":"bytes","internalType":"bytes"},{"name":"privateKey","type":"bytes","internalType":"bytes"},{"name":"registerPubKey","type":"tuple","internalType":"struct RSAPublicKeyRaw","components":[{"name":"n","type":"bytes","internalType":"bytes"},{"name":"e","type":"bytes","internalType":"bytes"}]}],"stateMutability":"view"},{"type":"function","name":"endElection","inputs":[{"name":"electionID","type":"uint256","internalType":"uint256"}],"outputs":[],"stateMutability":"nonpayable"},{"type":"function","name":"isTrustedForwarder","inputs":[{"name":"forwarder","type":"address","internalType":"address"}],"outputs":[{"name":"","type":"bool","internalType":"bool"}],"stateMutability":"view"},{"type":"function","name":"owner","inputs":[],"outputs":[{"name":"","type":"address","internalType":"address"}],"stateMutability":"view"},{"type":"function","name":"publishElectionResults","inputs":[{"name":"electionID","type":"uint256","internalType":"uint256"},{"name":"yesVotes","type":"uint256[]","internalType":"uint256[]"},{"name":"noVotes","type":"uint256[]","internalType":"uint256[]"},{"name":"invalidVotes","type":"uint256[]","internalType":"uint256[]"},{"name":"privateKey","type":"bytes","internalType":"bytes"}],"outputs":[],"stateMutability":"nonpayable"},{"type":"function","name":"registerVoter","inputs":[{"name":"electionID","type":"uint256","internalType":"uint256"},{"name":"voterID","type":"uint256","internalType":"uint256"},{"name":"blindedSignature","type":"bytes","internalType":"bytes"},{"name":"blindedElectionToken","type":"bytes","internalType":"bytes"}],"outputs":[],"stateMutability":"nonpayable"},{"type":"function","name":"registerVoters","inputs":[{"name":"electionID","type":"uint256","internalType":"uint256"},{"name":"voterIDs","type":"uint256[]","internalType":"uint256[]"},{"name":"blindedSignature","type":"bytes","internalType":"bytes"},{"name":"blindedElectionToken","type":"bytes","internalType":"bytes"}],"outputs":[],"stateMutability":"nonpayable"},{"type":"function","name":"registers","inputs":[{"name":"","type":"uint8","internalType":"uint8"}],"outputs":[{"name":"id","type":"uint8","internalType":"uint8"},{"name":"owner","type":"address","internalType":"address"},{"name":"registerName","type":"string","internalType":"string"},{"name":"registerURI","type":"string","internalType":"string"}],"stateMutability":"view"},{"type":"function","name":"renounceOwnership","inputs":[],"outputs":[],"stateMutability":"nonpayable"},{"type":"function","name":"setElectionRegisterPublicKey","inputs":[{"name":"electionID","type":"uint256","internalType":"uint256"},{"name":"n","type":"bytes","internalType":"bytes"},{"name":"e","type":"bytes","internalType":"bytes"}],"outputs":[],"stateMutability":"nonpayable"},{"type":"function","name":"startElection","inputs":[{"name":"electionID","type":"uint256","internalType":"uint256"}],"outputs":[],"stateMutability":"nonpayable"},{"type":"function","name":"svss","inputs":[{"name":"","type":"uint8","internalType":"uint8"}],"outputs":[{"name":"id","type":"uint8","internalType":"uint8"},{"name":"owner","type":"address","internalType":"address"},{"name":"svsName","type":"string","internalType":"string"},{"name":"svsURI","type":"string","internalType":"string"}],"stateMutability":"view"},{"type":"function","name":"transferOwnership","inputs":[{"name":"newOwner","type":"address","internalType":"address"}],"outputs":[],"stateMutability":"nonpayable"},{"type":"function","name":"trustedForwarder","inputs":[],"outputs":[{"name":"","type":"address","internalType":"address"}],"stateMutability":"view"},{"type":"function","name":"vote","inputs":[{"name":"electionID","type":"uint256","internalType":"uint256"},{"name":"voter","type":"address","internalType":"address"},{"name":"svsSignature","type":"bytes","internalType":"bytes"},{"name":"vote_encrypted","type":"bytes","internalType":"bytes"},{"name":"unblindedElectionToken","type":"bytes","internalType":"bytes"},{"name":"unblindedSignature","type":"bytes","internalType":"bytes"}],"outputs":[],"stateMutability":"nonpayable"},{"type":"event","name":"ElectionCanceled","inputs":[{"name":"electionID","type":"uint256","indexed":true,"internalType":"uint256"},{"name":"cancelReasonIPFSCID","type":"string","indexed":false,"internalType":"string"}],"anonymous":false},{"type":"event","name":"ElectionCreated","inputs":[{"name":"electionID","type":"uint256","indexed":true,"internalType":"uint256"},{"name":"startTime","type":"uint256","indexed":false,"internalType":"uint256"},{"name":"endTime","type":"uint256","indexed":false,"internalType":"uint256"},{"name":"registerId","type":"uint8","indexed":false,"internalType":"uint8"},{"name":"authProviderId","type":"uint8","indexed":false,"internalType":"uint8"},{"name":"svsId","type":"uint8","indexed":false,"internalType":"uint8"},{"name":"descriptionIPFSCID","type":"string","indexed":false,"internalType":"string"},{"name":"publicKey","type":"bytes","indexed":false,"internalType":"bytes"}],"anonymous":false},{"type":"event","name":"ElectionRegisterPublicKeySet","inputs":[{"name":"electionID","type":"uint256","indexed":true,"internalType":"uint256"},{"name":"n","type":"bytes","indexed":false,"internalType":"bytes"},{"name":"e","type":"bytes","indexed":false,"internalType":"bytes"}],"anonymous":false},{"type":"event","name":"ElectionResultsPublished","inputs":[{"name":"electionID","type":"uint256","indexed":true,"internalType":"uint256"},{"name":"privateKey","type":"bytes","indexed":false,"internalType":"bytes"},{"name":"yesVotes","type":"uint256[]","indexed":false,"internalType":"uint256[]"},{"name":"noVotes","type":"uint256[]","indexed":false,"internalType":"uint256[]"},{"name":"invalidVotes","type":"uint256[]","indexed":false,"internalType":"uint256[]"}],"anonymous":false},{"type":"event","name":"ElectionStatusChanged","inputs":[{"name":"electionID","type":"uint256","indexed":true,"internalType":"uint256"},{"name":"oldStatus","type":"uint8","indexed":false,"internalType":"enum ElectionStatus"},{"name":"newStatus","type":"uint8","indexed":false,"internalType":"enum ElectionStatus"}],"anonymous":false},{"type":"event","name":"OwnershipTransferred","inputs":[{"name":"previousOwner","type":"address","indexed":true,"internalType":"address"},{"name":"newOwner","type":"address","indexed":true,"internalType":"address"}],"anonymous":false},{"type":"event","name":"VoteCast","inputs":[{"name":"electionID","type":"uint256","indexed":true,"internalType":"uint256"},{"name":"voter","type":"address","indexed":true,"internalType":"address"},{"name":"svsSignature","type":"bytes","indexed":false,"internalType":"bytes"},{"name":"vote_encrypted","type":"bytes","indexed":false,"internalType":"bytes"},{"name":"unblindedElectionToken","type":"bytes","indexed":false,"internalType":"bytes"},{"name":"unblindedSignature","type":"bytes","indexed":false,"internalType":"bytes"}],"anonymous":false},{"type":"event","name":"VoteUpdated","inputs":[{"name":"electionID","type":"uint256","indexed":true,"internalType":"uint256"},{"name":"voter","type":"address","indexed":true,"internalType":"address"},{"name":"vote_encrypted","type":"bytes","indexed":false,"internalType":"bytes"}],"anonymous":false},{"type":"event","name":"VoterAuthorized","inputs":[{"name":"electionID","type":"uint256","indexed":true,"internalType":"uint256"},{"name":"voterID","type":"uint256","indexed":true,"internalType":"uint256"},{"name":"apID","type":"uint8","indexed":true,"internalType":"uint8"}],"anonymous":false},{"type":"event","name":"VoterRegistered","inputs":[{"name":"electionID","type":"uint256","indexed":true,"internalType":"uint256"},{"name":"voterID","type":"uint256","indexed":true,"internalType":"uint256"},{"name":"registerID","type":"uint8","indexed":true,"internalType":"uint8"},{"name":"blindedSignature","type":"bytes","indexed":false,"internalType":"bytes"},{"name":"blindedElectionToken","type":"bytes","indexed":false,"internalType":"bytes"}],"anonymous":false},{"type":"event","name":"VotersAuthorized","inputs":[{"name":"electionID","type":"uint256","indexed":true,"internalType":"uint256"},{"name":"voterIDs","type":"uint256[]","indexed":false,"internalType":"uint256[]"},{"name":"apID","type":"uint8","indexed":true,"internalType":"uint8"}],"anonymous":false},{"type":"event","name":"VotersRegistered","inputs":[{"name":"electionID","type":"uint256","indexed":true,"internalType":"uint256"},{"name":"voterIDs","type":"uint256[]","indexed":false,"internalType":"uint256[]"},{"name":"registerID","type":"uint8","indexed":true,"internalType":"uint8"},{"name":"blindedSignature","type":"bytes","indexed":false,"internalType":"bytes"},{"name":"blindedElectionToken","type":"bytes","indexed":false,"internalType":"bytes"}],"anonymous":false},{"type":"error","name":"ECDSAInvalidSignature","inputs":[]},{"type":"error","name":"ECDSAInvalidSignatureLength","inputs":[{"name":"length","type":"uint256","internalType":"uint256"}]},{"type":"error","name":"ECDSAInvalidSignatureS","inputs":[{"name":"s","type":"bytes32","internalType":"bytes32"}]},{"type":"error","name":"OwnableInvalidOwner","inputs":[{"name":"owner","type":"address","internalType":"address"}]},{"type":"error","name":"OwnableUnauthorizedAccount","inputs":[{"name":"account","type":"address","internalType":"address"}]}],"bytecode":{"object":"0x60a0346100d657601f62002aa338819003918201601f19168301916001600160401b038311848410176100db578084926020946040528339810103126100d657516001600160a01b039081811681036100d65733156100bd576000543360018060a01b0319821617600055604051923391167f8be0079c531659141344cd1fd0a4f28419497f9722a3daafe3b4186f6b6457e0600080a36080526129b19081620000f2823960805181818161197301528181611d8601526127ca0152f35b604051631e4fbdf760e01b815260006004820152602490fd5b600080fd5b634e487b7160e01b600052604160045260246000fdfe6080604052600436101561001257600080fd5b60003560e01c8063256fab2f14611f2657806332d8fde014611df95780633ad71ded14611dba578063572b6c0514611d665780635e6fef0114611bde57806362dc5b3714611b1e5780636d32dc4b146119fb578063715018a6146119a25780637da0a8771461195d57806388c7c073146118505780638b9f341b146116815780638da5cb5b146116585780639c98bcbb146115de578063a4133feb14611223578063a67e65c3146111e4578063ad6e96f114611167578063ae27a99c146110d3578063b124798314610b15578063ca3ebbca14610a89578063e1c67af414610a21578063ed08dc361461070e578063f2fde38b146106805763ff6cc66e1461011957600080fd5b3461067b5760c036600319011261067b576024356001600160a01b038116900361067b576001600160401b0360443581811161067b5761015d90369060040161212a565b919060643582811161067b5761017790369060040161212a565b91909360843584811161067b5761019290369060040161212a565b95909460a43590811161067b576101ad90369060040161212a565b9690956101bb6004356122b1565b5091861561064957600683015460ff8160181c166005811015610633576001036105f557600284015442116105bf57851561050a5760101c60ff1660009081526002602052604090205460081c6001600160a01b031680156104d157891561048c578115610447576024356001600160a01b0316600090815260078501602052604090205460ff16610412576102ff6102f686846102b660548f8f908f9181868d60405198868a97602089019c8d60043590526bffffffffffffffffffffffff1960243560601b1660408b01528a8a013787019188830160008152370191858301600081523701600083820152036034810184520182611fbe565b5190206102c4368a8c612005565b907f19457468657265756d205369676e6564204d6573736167653a0a333200000000600052601c52603c600020612820565b9092919261285c565b6001600160a01b0316036103df576003830193845490600182018092116103c9577fe14ef84552be78056208429105497c98038b42888a5514c26859cf725bf308159860076103a696610398946103c4995560018060a01b0360243516600052016020526040600020600160ff1982541617905561038a604051998a9960808b5260808b01916126f1565b9188830360208a01526126f1565b9185830360408701526126f1565b82810360608401526024356001600160a01b031696600435966126f1565b0390a3005b634e487b7160e01b600052601160045260246000fd5b60405162461bcd60e51b815260206004820152600b60248201526a14da59c81a5b9d985b1a5960aa1b6044820152606490fd5b60405162461bcd60e51b815260206004820152600d60248201526c105b1c9958591e481d9bdd1959609a1b6044820152606490fd5b60405162461bcd60e51b815260206004820152601c60248201527f756e626c696e646564456c656374696f6e546f6b656e20656d707479000000006044820152606490fd5b60405162461bcd60e51b815260206004820152601860248201527f756e626c696e6465645369676e617475726520656d70747900000000000000006044820152606490fd5b60405162461bcd60e51b815260206004820152601160248201527014d594c81b9bdd081cdc1958da599a5959607a1b6044820152606490fd5b5050509250945050600791925060018060a01b036105266127c7565b166000520160205260ff604060002054161561058a577f7c1b6e0bead11af4a2228a932e5f9347a734ce6a77fa9dd16340629dc6761e496103c46001600160a01b036105706127c7565b1693604051918291602083526004359560208401916126f1565b60405162461bcd60e51b815260206004820152600d60248201526c3b37ba32b9103ab735b737bbb760991b6044820152606490fd5b60405162461bcd60e51b815260206004820152600e60248201526d115b1958dd1a5bdb88195b99195960921b6044820152606490fd5b60405162461bcd60e51b8152602060048201526016602482015275456c656374696f6e206973206e6f742061637469766560501b6044820152606490fd5b634e487b7160e01b600052602160045260246000fd5b60405162461bcd60e51b815260206004820152600a602482015269766f746520656d70747960b01b6044820152606490fd5b600080fd5b3461067b57602036600319011261067b57610699611fef565b6106a1612786565b6001600160a01b039081169081156106f557600054826bffffffffffffffffffffffff60a01b821617600055167f8be0079c531659141344cd1fd0a4f28419497f9722a3daafe3b4186f6b6457e0600080a3005b604051631e4fbdf760e01b815260006004820152602490fd5b3461067b5760a036600319011261067b576001600160401b0360043560243582811161067b576107429036906004016120fa565b9060443584811161067b5761075b9036906004016120fa565b9060643586811161067b576107749036906004016120fa565b92909360843588811161067b5761078f90369060040161204b565b95610798612786565b6107a1886122b1565b50600681019081549160ff8360181c166005811015610633576002036109e757858414806109de575b15610987576303000000600b9363ff0000001916179055018751998a11610971576107ff8a6107f98354612157565b8361240e565b6020601f8b116001146108d457936108897f7fcd094554b47e375d6a1b9177531c60274153841ea6bb7d55eda281b925af5f999794610897946108a598946108648e9f8061087b9e9b6000916108c9575b508160011b916000199060031b1c19161790565b90555b6040519a8b9a60808c5260808c0190612236565b918a830360208c01526126cd565b9187830360408901526126cd565b9184830360608601526126cd565b0390a260008051602061295c833981519152604080516002815260036020820152a2005b90508d015138610850565b601f198b169082600052806000209160005b818110610959575094610897946108a5989460018e9f61087b9d9a967f7fcd094554b47e375d6a1b9177531c60274153841ea6bb7d55eda281b925af5f9f9d9a968e836108899910610940575b505050811b019055610867565b015160001960f88460031b161c1916905538808e610933565b8b8301518455600190930192602092830192016108e6565b634e487b7160e01b600052604160045260246000fd5b60405162461bcd60e51b815260206004820152602960248201527f526573756c747320617272617973206d7573742068617665207468652073616d60448201526832903632b733ba341760b91b6064820152608490fd5b508786146107ca565b60405162461bcd60e51b8152602060048201526012602482015271115b1958dd1a5bdb881b9bdd08195b99195960721b6044820152606490fd5b3461067b57602036600319011261067b5760ff610a3c611fdf565b16600052600160205260406000208054610a85610a676002610a6060018601612191565b9401612191565b604051938493600881901c6001600160a01b03169060ff1685612276565b0390f35b3461067b57602036600319011261067b576004356001600160401b03811161067b57610abc610b13913690600401612069565b610ac4612786565b60ff8151166000526002602052610afc60018060a01b03610aef8160406000205460081c161561238f565b60208301511615156123cd565b60ff81511660005260026020526040600020612464565b005b3461067b5760e036600319011261067b5760443560ff8116810361067b5760ff606435166064350361067b5760ff608435166084350361067b5760a4356001600160401b03811161067b57610b6e90369060040161204b565b60c4356001600160401b03811161067b57610b8d90369060040161204b565b91610b96612786565b6024356004351015611082574260043511156110485760ff811660009081526001602052604090205460081c6001600160a01b03161561100e5760643560ff1660009081526003602052604090205460081c6001600160a01b031615610fd05760843560ff1660009081526002602052604090205460081c6001600160a01b031615610f9b57815115610f5657825115610f11576004549068010000000000000000821015610971576001820180600455610c50836122b1565b505082116103c957610c61826122b1565b509363ff00000019600686015416600686015582855583516001600160401b03811161097157610ca181610c986009890154612157565b6009890161240e565b6020601f8211600114610ea5579080610ccf92600091610e9a57508160011b916000199060031b1c19161790565b60098601555b6004356001860155602435600286015560068501805462ffffff191660ff84161760643560081b61ff00161760843560101b62ff0000161790558051946001600160401b0386116109715785610d3d602097610d34600a850154612157565b600a850161240e565b86601f8211600114610e015792610ddd86977f156278f14e9e7a4cae711d0a34c4509a150ed6f3c9365eb06f33bafe8ee520de9694600a610d9a86610deb9760ff9a600091610df657508160011b916000199060031b1c19161790565b9101555b60405195869560043587526024358c88015216604086015260ff60643516606086015260ff60843516608086015260e060a086015260e0850190612236565b9083820360c0850152612236565b0390a2604051908152f35b90508701518f610850565b600a8301600052876000209060005b601f1984168110610e83575086977f156278f14e9e7a4cae711d0a34c4509a150ed6f3c9365eb06f33bafe8ee520de9694600a60018660ff9996610ddd96610deb99601f19811610610e6a575b5050811b01910155610d9e565b88015160001960f88460031b161c191690558e80610e5d565b909189600181928589015181550193019101610e10565b905086015188610850565b906009870160005260206000206000925b601f1983168410610ef9576001935082601f19811610610ee0575b5050811b016009860155610cd5565b87015160001960f88460031b161c191690558780610ed1565b87810151825560209384019360019092019101610eb6565b60405162461bcd60e51b815260206004820152601760248201527f496e76616c696420656c656374696f6e205075624b65790000000000000000006044820152606490fd5b60405162461bcd60e51b815260206004820152601760248201527f496e76616c6964206465736372697074696f6e204349440000000000000000006044820152606490fd5b60405162461bcd60e51b815260206004820152600d60248201526c125b9d985b1a59081cdd9cd259609a1b6044820152606490fd5b60405162461bcd60e51b8152602060048201526016602482015275125b9d985b1a5908185d5d1a141c9bdd9a59195c925960521b6044820152606490fd5b60405162461bcd60e51b8152602060048201526012602482015271125b9d985b1a59081c9959da5cdd195c925160721b6044820152606490fd5b60405162461bcd60e51b815260206004820152601260248201527114dd185c9d081d1a5b59481a5b881c185cdd60721b6044820152606490fd5b60405162461bcd60e51b815260206004820152602360248201527f53746172742074696d65206d757374206265206265666f726520656e6420746960448201526236b29760e91b6064820152608490fd5b3461067b57604036600319011261067b5760043560ff60066110f4836122b1565b50015460081c169081600052600360205261112060018060a01b0360406000205460081c163314612712565b600461112b826122b1565b5001805490600182018092116103c95755602435907ffdc9f15cdb5775fdc9cb8210e4bbe880f3087e8e7671807001291e20c87c1703600080a4005b3461067b57602036600319011261067b576004356001600160401b03811161067b5761119a610b13913690600401612069565b6111a2612786565b60ff81511660005260036020526111cd60018060a01b03610aef8160406000205460081c161561238f565b60ff81511660005260036020526040600020612464565b3461067b57602036600319011261067b5760ff6111ff611fdf565b16600052600360205260406000208054610a85610a676002610a6060018601612191565b3461067b57606036600319011261067b5760043560246001600160401b03813581811161067b5761125890369060040161204b565b9160443582811161067b5761127190369060040161204b565b9060ff600661127f876122b1565b5001541660005260019260209380855260018060a01b0360406000205460081c1633036115aa5760ff60066112b3896122b1565b50015460181c16600581101561159557158015611570575b1561152c57604051926112dd84611fa3565b868452858401938585526112f0896122b1565b5090518051600c830191868211611517576113158261130f8554612157565b8561240e565b8990601f83116001146114ad57918061134a92600d9695946000926114a2575b50508160011b916000199060031b1c19161790565b90555b01935190815193841161148e575061136f836113698654612157565b8661240e565b8591601f84116001146113ff5750926113cb836113e297947fd564ae0c19e7c4abf1a013f9e736abe2695aa574026614ed29237392b84fa02f9997946113ef976000926113f45750508160011b916000199060031b1c19161790565b90555b604051948594604086526040860190612236565b9184830390850152612236565b0390a2005b015190508b80611335565b9291601f1983169185600052876000209260005b8181106114795750926113e298959285927fd564ae0c19e7c4abf1a013f9e736abe2695aa574026614ed29237392b84fa02f9b99966113ef999610611460575b505050811b0190556113ce565b015160001960f88460031b161c191690558a8080611453565b82840151855593860193928901928901611413565b634e487b7160e01b60009081526041600452fd5b015190508e80611335565b9392918691601f19821690846000528c600020918d6000905b8282106115005750509683600d98106114e7575b505050811b01905561134d565b015160001960f88460031b161c191690558d80806114da565b838a015185558b969094019392830192018e6114c6565b84634e487b7160e01b60005260416004526000fd5b60405162461bcd60e51b815260048101869052601e818501527f456c656374696f6e206e6f7420616374697665206f722070656e64696e6700006044820152606490fd5b5060ff600661157e896122b1565b50015460181c1660058110156115955781146112cb565b83634e487b7160e01b60005260216004526000fd5b60405162461bcd60e51b815260048101869052600d818501526c27b7363c902932b3b4b9ba32b960991b6044820152606490fd5b3461067b57602036600319011261067b576004356115fa612786565b60008051602061295c833981519152604060ff61164e600661161b866122b1565b5061162c600282015442101561274e565b01805463ff000000198116630200000017909155835192839160181c16612382565b60026020820152a2005b3461067b57600036600319011261067b576000546040516001600160a01b039091168152602090f35b3461067b57604036600319011261067b576004356001600160401b0360243581811161067b576116b590369060040161204b565b906116be612786565b6116c7836122b1565b509160086006840193845494630400000063ff000000198716179055018151928311610971578261170386946116fd8454612157565b8461240e565b6020601f82116001146117ab57937f16855b8fd590df07334beb9055e3e43a8856ad0a085241abb0fd4071c4b440bf61178560ff956117969561176f8660008051602061295c8339815191529b9760409b6000916117a057508160011b916000199060031b1c19161790565b90555b8751918291602083526020830190612236565b0390a2835192839160181c16612382565b60046020820152a2005b90508401518e610850565b601f1982169083600052806000209160005b818110611835575060ff956117969560018660409a967f16855b8fd590df07334beb9055e3e43a8856ad0a085241abb0fd4071c4b440bf9660008051602061295c8339815191529d99611785971061181c575b5050811b019055611772565b85015160001960f88460031b161c191690558d80611810565b828701518455899750600190930192602092830192016117bd565b3461067b57608036600319011261067b576004356001600160401b0360443581811161067b5761188490369060040161212a565b92909160643590811161067b5761189f90369060040161212a565b909260ff60066118ae856122b1565b50015416948560005260016020526118d760018060a01b0360406000205460081c163314612632565b6118e2811515612674565b6118ed831515612674565b60056118f8856122b1565b5001805493600185018095116103c9577f2c5dc525450bc5b952dc01497602a143979bc76ab18f35f7f88265155fe5364d9461195892556119466040519485946040865260408601916126f1565b908382036020850152602435976126f1565b0390a4005b3461067b57600036600319011261067b576040517f00000000000000000000000000000000000000000000000000000000000000006001600160a01b03168152602090f35b3461067b57600036600319011261067b576119bb612786565b600080546001600160a01b0319811682556001600160a01b03167f8be0079c531659141344cd1fd0a4f28419497f9722a3daafe3b4186f6b6457e08280a3005b3461067b57602036600319011261067b57600435611a17612786565b611a20816122b1565b50611a31600182015442101561274e565b4260028201541115611aee57611a4a600c820154612157565b151580611ad9575b15611a9c57600601805463ff0000001981166301000000179091556040805160008051602061295c83398151915292611a9290829060181c60ff16612382565b60016020820152a2005b60405162461bcd60e51b8152602060048201526015602482015274149959da5cdd195c8812d95e481c995c5d5a5c9959605a1b6044820152606490fd5b50611ae7600d820154612157565b1515611a52565b60405162461bcd60e51b8152602060048201526008602482015267746f6f206c61746560c01b6044820152606490fd5b3461067b57604036600319011261067b576024356004356001600160401b03821161067b57611b727f75fccf1e7f4d6ed8c2f55bfcfd5593f7e4ee4323d013c99b055ca000cc454e1c9236906004016120fa565b929060ff6006611b81856122b1565b50015460081c1693846000526003602052611bad60018060a01b0360406000205460081c163314612712565b6004611bb8856122b1565b5001611bc58282546126c0565b90556103c46040519283926020845260208401916126cd565b3461067b57602036600319011261067b5760043560045481101561067b57611c05906122b1565b5080549060018101549060028101549260038201549060048301549060058401549060068501549060088601611c3a90612191565b90611c4760098801612191565b92611c54600a8901612302565b94611c61600b8a01612302565b9660405199611c6f8b611fa3565b611c7b600c8201612302565b8b52600d01611c8990612302565b9860208b01998a526040519c8d9c8d6101e09781526020015260408d015260608c015260808b015260a08a015260ff811660c08a01528060081c60ff1660e08a01528060101c60ff166101008a015261012089019060181c60ff1690611cee91612382565b806101408901528701611d0091612236565b868103610160880152611d1291612236565b858103610180870152611d2491612236565b8481036101a0860152611d3691612236565b918383036101c0850152516040835260408301611d5291612236565b9051918082039060200152610a8591612236565b3461067b57602036600319011261067b576020611d81611fef565b6040517f00000000000000000000000000000000000000000000000000000000000000006001600160a01b039081169216919091148152f35b3461067b57602036600319011261067b5760ff611dd5611fdf565b16600052600260205260406000208054610a85610a676002610a6060018601612191565b3461067b57608036600319011261067b576001600160401b0360043560243582811161067b57611e2d9036906004016120fa565b929060443582811161067b57611e4790369060040161212a565b94909260643590811161067b577ff6da39384f715811f0feea8a8e1fffa76fa54b4716ce679ba96b616d4acbddef93611f18611e8a6103c493369060040161212a565b91909260ff6006611e9a8b6122b1565b50015416998a6000526001602052611ec360018060a01b0360406000205460081c163314612632565b611ece811515612674565b611ed9841515612674565b6005611ee48b6122b1565b5001611ef18882546126c0565b9055611f0a60405198899860608a5260608a01916126cd565b9187830360208901526126f1565b9184830360408601526126f1565b3461067b57602036600319011261067b576004356001600160401b03811161067b57611f59610b13913690600401612069565b611f61612786565b60ff8151166000526001602052611f8c60018060a01b03610aef8160406000205460081c161561238f565b60ff81511660005260016020526040600020612464565b604081019081106001600160401b0382111761097157604052565b90601f801991011681019081106001600160401b0382111761097157604052565b6004359060ff8216820361067b57565b600435906001600160a01b038216820361067b57565b9291926001600160401b038211610971576040519161202e601f8201601f191660200184611fbe565b82948184528183011161067b578281602093846000960137010152565b9080601f8301121561067b5781602061206693359101612005565b90565b91909160808184031261067b57604051906001600160401b03906080830182811184821017610971576040528294813560ff8116810361067b57845260208201356001600160a01b038116810361067b576020850152604082013583811161067b57816120d791840161204b565b6040850152606082013592831161067b576060926120f5920161204b565b910152565b9181601f8401121561067b578235916001600160401b03831161067b576020808501948460051b01011161067b57565b9181601f8401121561067b578235916001600160401b03831161067b576020838186019501011161067b57565b90600182811c92168015612187575b602083101461217157565b634e487b7160e01b600052602260045260246000fd5b91607f1691612166565b906040519182600082546121a481612157565b9081845260209460019160018116908160001461221457506001146121d5575b5050506121d392500383611fbe565b565b600090815285812095935091905b8183106121fc5750506121d393508201013880806121c4565b855488840185015294850194879450918301916121e3565b925050506121d394925060ff191682840152151560051b8201013880806121c4565b919082519283825260005b848110612262575050826000602080949584010152601f8019910116010190565b602081830181015184830182015201612241565b92612066949260ff6122a39316855260018060a01b03166020850152608060408501526080840190612236565b916060818403910152612236565b6004548110156122ec57600e906004600052027f8a35acfbc15ff81a39ae7d344fd709f28e8600b4aa8c65c6b64bfe7fe36bd19b0190600090565b634e487b7160e01b600052603260045260246000fd5b9060405191826000825461231581612157565b908184526020946001916001811690816000146122145750600114612343575050506121d392500383611fbe565b600090815285812095935091905b81831061236a5750506121d393508201013880806121c4565b85548884018501529485019487945091830191612351565b9060058210156106335752565b1561239657565b60405162461bcd60e51b815260206004820152600f60248201526e125108185b1c9958591e481d5cd959608a1b6044820152606490fd5b156123d457565b60405162461bcd60e51b8152602060048201526012602482015271139bc81bdddb995c881cdc1958da599a595960721b6044820152606490fd5b90601f811161241c57505050565b6000916000526020600020906020601f850160051c8301941061245a575b601f0160051c01915b82811061244f57505050565b818155600101612443565b909250829061243a565b815181546020808501516001600160a81b031990921660ff939093169290921760089190911b610100600160a81b0316178255604083015180516001936001600160401b039392909185830191858211610971576124c68261130f8554612157565b8490601f83116001146125c4578260609593600295936124fc936000926125555750508160011b916000199060031b1c19161790565b90555b01940151928351928311610971576125218361251b8754612157565b8761240e565b81601f84116001146125605750508190612551936000926125555750508160011b916000199060031b1c19161790565b9055565b015190503880611335565b91909383601f1981168760005284600020946000905b888383106125aa5750505010612591575b505050811b019055565b015160001960f88460031b161c19169055388080612587565b858701518855909601959485019487935090810190612576565b879291601f1983169185600052876000209260005b8982821061261c5750509160609795939185600298969410612603575b505050811b0190556124ff565b015160001960f88460031b161c191690553880806125f6565b8385015186558c979095019493840193016125d9565b1561263957565b60405162461bcd60e51b815260206004820152601360248201527227b7363c902932b3b4b9ba32b91027bbb732b960691b6044820152606490fd5b1561267b57565b60405162461bcd60e51b815260206004820152601a60248201527f426c696e646564205369676e61747572652072657175697265640000000000006044820152606490fd5b919082018092116103c957565b81835290916001600160fb1b03831161067b5760209260051b809284830137010190565b908060209392818452848401376000828201840152601f01601f1916010190565b1561271957565b60405162461bcd60e51b815260206004820152600d60248201526c27b7363c9020a81027bbb732b960991b6044820152606490fd5b1561275557565b60405162461bcd60e51b8152602060048201526009602482015268746f6f206561726c7960b81b6044820152606490fd5b6000546001600160a01b039081168161279d6127c7565b16036127a65750565b6024906127b16127c7565b60405163118cdaa760e01b815291166004820152fd5b337f00000000000000000000000000000000000000000000000000000000000000006001600160a01b03161480612815575b156128115760131936013681116103c9573560601c90565b3390565b5060143610156127f9565b81519190604183036128515761284a92506020820151906060604084015193015160001a906128cb565b9192909190565b505060009160029190565b6004811015610633578061286e575050565b600181036128885760405163f645eedf60e01b8152600490fd5b600281036128a95760405163fce698f760e01b815260048101839052602490fd5b6003146128b35750565b602490604051906335e2f38360e21b82526004820152fd5b91907f7fffffffffffffffffffffffffffffff5d576e7357a4501ddfe92f46681b20a0841161294f57926020929160ff608095604051948552168484015260408301526060820152600092839182805260015afa156129435780516001600160a01b0381161561293a57918190565b50809160019190565b604051903d90823e3d90fd5b5050506000916003919056fe12b37df6c3e196249962cd4347a3d9d9e6444d63d7f1bd286129f93ca919fb3da2646970667358221220b283ccb703461e7f5da8fb766b53839711420d0c29191b62b2c85aa9c47cc7ae64736f6c63430008180033","linkReferences":{}},"methodIdentifiers":{"addAP((uint8,address,string,string))":"ad6e96f1","addRegister((uint8,address,string,string))":"256fab2f","addSVS((uint8,address,string,string))":"ca3ebbca","aps(uint8)":"a67e65c3","authorizeVoter(uint256,uint256)":"ae27a99c","authorizeVoters(uint256,uint256[])":"62dc5b37","cancelElection(uint256,string)":"8b9f341b","createElection(uint256,uint256,uint8,uint8,uint8,string,bytes)":"b1247983","elections(uint256)":"5e6fef01","endElection(uint256)":"9c98bcbb","isTrustedForwarder(address)":"572b6c05","owner()":"8da5cb5b","publishElectionResults(uint256,uint256[],uint256[],uint256[],bytes)":"ed08dc36","registerVoter(uint256,uint256,bytes,bytes)":"88c7c073","registerVoters(uint256,uint256[],bytes,bytes)":"32d8fde0","registers(uint8)":"e1c67af4","renounceOwnership()":"715018a6","setElectionRegisterPublicKey(uint256,bytes,bytes)":"a4133feb","startElection(uint256)":"6d32dc4b","svss(uint8)":"3ad71ded","transferOwnership(address)":"f2fde38b","trustedForwarder()":"7da0a877","vote(uint256,address,bytes,bytes,bytes,bytes)":"ff6cc66e"},"id":35}